{
  "contractName": "Contest",
  "abi": [
    {
      "constant": true,
      "inputs": [],
      "name": "registerFinalDate",
      "outputs": [
        {
          "name": "",
          "type": "uint256"
        }
      ],
      "payable": false,
      "stateMutability": "view",
      "type": "function"
    },
    {
      "constant": true,
      "inputs": [],
      "name": "availableTickets",
      "outputs": [
        {
          "name": "",
          "type": "uint256"
        }
      ],
      "payable": false,
      "stateMutability": "view",
      "type": "function"
    },
    {
      "constant": true,
      "inputs": [
        {
          "name": "",
          "type": "bytes32"
        }
      ],
      "name": "claimedTickets",
      "outputs": [
        {
          "name": "",
          "type": "bool"
        }
      ],
      "payable": false,
      "stateMutability": "view",
      "type": "function"
    },
    {
      "constant": true,
      "inputs": [],
      "name": "description",
      "outputs": [
        {
          "name": "",
          "type": "string"
        }
      ],
      "payable": false,
      "stateMutability": "view",
      "type": "function"
    },
    {
      "constant": true,
      "inputs": [],
      "name": "contestDate",
      "outputs": [
        {
          "name": "",
          "type": "uint256"
        }
      ],
      "payable": false,
      "stateMutability": "view",
      "type": "function"
    },
    {
      "constant": true,
      "inputs": [],
      "name": "cm",
      "outputs": [
        {
          "name": "",
          "type": "address"
        }
      ],
      "payable": false,
      "stateMutability": "view",
      "type": "function"
    },
    {
      "constant": true,
      "inputs": [],
      "name": "tokensPerTicket",
      "outputs": [
        {
          "name": "",
          "type": "uint256"
        }
      ],
      "payable": false,
      "stateMutability": "view",
      "type": "function"
    },
    {
      "constant": true,
      "inputs": [],
      "name": "totalTickets",
      "outputs": [
        {
          "name": "",
          "type": "uint256"
        }
      ],
      "payable": false,
      "stateMutability": "view",
      "type": "function"
    },
    {
      "inputs": [
        {
          "name": "_registerFinalDate",
          "type": "uint256"
        },
        {
          "name": "_contestDate",
          "type": "uint256"
        },
        {
          "name": "_description",
          "type": "string"
        },
        {
          "name": "_totalTickets",
          "type": "uint256"
        },
        {
          "name": "_contestManagerAddr",
          "type": "address"
        },
        {
          "name": "_tokensPerTicket",
          "type": "uint256"
        }
      ],
      "payable": false,
      "stateMutability": "nonpayable",
      "type": "constructor"
    },
    {
      "anonymous": false,
      "inputs": [
        {
          "indexed": false,
          "name": "code",
          "type": "bytes32"
        }
      ],
      "name": "TicketClaimed",
      "type": "event"
    },
    {
      "anonymous": false,
      "inputs": [
        {
          "indexed": false,
          "name": "code",
          "type": "bytes32"
        }
      ],
      "name": "TicketFreed",
      "type": "event"
    },
    {
      "anonymous": false,
      "inputs": [],
      "name": "NoMoreTickets",
      "type": "event"
    },
    {
      "constant": false,
      "inputs": [
        {
          "name": "code",
          "type": "bytes32"
        }
      ],
      "name": "claimTicket",
      "outputs": [
        {
          "name": "",
          "type": "bytes32"
        }
      ],
      "payable": false,
      "stateMutability": "nonpayable",
      "type": "function"
    },
    {
      "constant": true,
      "inputs": [
        {
          "name": "code",
          "type": "bytes32"
        }
      ],
      "name": "checkTicket",
      "outputs": [
        {
          "name": "",
          "type": "bool"
        }
      ],
      "payable": false,
      "stateMutability": "view",
      "type": "function"
    },
    {
      "constant": false,
      "inputs": [
        {
          "name": "code",
          "type": "bytes32"
        }
      ],
      "name": "freeTicket",
      "outputs": [
        {
          "name": "",
          "type": "bytes32"
        }
      ],
      "payable": false,
      "stateMutability": "nonpayable",
      "type": "function"
    }
  ],
  "bytecode": "0x608060405234801561001057600080fd5b50604051610ab0380380610ab08339810180604052810190808051906020019092919080519060200190929190805182019291906020018051906020019092919080519060200190929190805190602001909291905050508560008190555083600390805190602001906100859291906100e7565b5084600181905550826004819055508060068190555081600260006101000a81548173ffffffffffffffffffffffffffffffffffffffff021916908373ffffffffffffffffffffffffffffffffffffffff16021790555050505050505061018c565b828054600181600116156101000203166002900490600052602060002090601f016020900481019282601f1061012857805160ff1916838001178555610156565b82800160010185558215610156579182015b8281111561015557825182559160200191906001019061013a565b5b5090506101639190610167565b5090565b61018991905b8082111561018557600081600090555060010161016d565b5090565b90565b6109158061019b6000396000f3006080604052600436106100af576000357c0100000000000000000000000000000000000000000000000000000000900463ffffffff1680631ea11874146100b45780633cfa7e01146100df57806360f67b571461010a578063636f3483146101535780637284e416146101a057806377f2f73b14610230578063931816201461025b578063a819ad5e146102b2578063ba91f717146102dd578063dd11247e14610326578063ed9d4ce714610351575b600080fd5b3480156100c057600080fd5b506100c961039e565b6040518082815260200191505060405180910390f35b3480156100eb57600080fd5b506100f46103a4565b6040518082815260200191505060405180910390f35b34801561011657600080fd5b5061013960048036038101908080356000191690602001909291905050506103aa565b604051808215151515815260200191505060405180910390f35b34801561015f57600080fd5b5061018260048036038101908080356000191690602001909291905050506103ca565b60405180826000191660001916815260200191505060405180910390f35b3480156101ac57600080fd5b506101b56105cb565b6040518080602001828103825283818151815260200191508051906020019080838360005b838110156101f55780820151818401526020810190506101da565b50505050905090810190601f1680156102225780820380516001836020036101000a031916815260200191505b509250505060405180910390f35b34801561023c57600080fd5b50610245610669565b6040518082815260200191505060405180910390f35b34801561026757600080fd5b5061027061066f565b604051808273ffffffffffffffffffffffffffffffffffffffff1673ffffffffffffffffffffffffffffffffffffffff16815260200191505060405180910390f35b3480156102be57600080fd5b506102c7610695565b6040518082815260200191505060405180910390f35b3480156102e957600080fd5b5061030c600480360381019080803560001916906020019092919050505061069b565b604051808215151515815260200191505060405180910390f35b34801561033257600080fd5b5061033b6106cd565b6040518082815260200191505060405180910390f35b34801561035d57600080fd5b5061038060048036038101908080356000191690602001909291905050506106d3565b60405180826000191660001916815260200191505060405180910390f35b60005481565b60055481565b60076020528060005260406000206000915054906101000a900460ff1681565b60006001151560076000846000191660001916815260200190815260200160002060009054906101000a900460ff16151514151561040757600080fd5b600260009054906101000a900473ffffffffffffffffffffffffffffffffffffffff1673ffffffffffffffffffffffffffffffffffffffff1663069c9fae336006546040518363ffffffff167c0100000000000000000000000000000000000000000000000000000000028152600401808373ffffffffffffffffffffffffffffffffffffffff1673ffffffffffffffffffffffffffffffffffffffff16815260200182815260200192505050602060405180830381600087803b1580156104ce57600080fd5b505af11580156104e2573d6000803e3d6000fd5b505050506040513d60208110156104f857600080fd5b810190808051906020019092919050505050600060076000846000191660001916815260200190815260200160002060006101000a81548160ff0219169083151502179055507fa1c591661dcc83e808acb2048e0c355d3b074f83d75eb0468d50d1bebee9b6288260405180826000191660001916815260200191505060405180910390a1600560008154809291906001019190505550600060076000846000191660001916815260200190815260200160002060006101000a81548160ff021916908315150217905550819050919050565b60038054600181600116156101000203166002900480601f0160208091040260200160405190810160405280929190818152602001828054600181600116156101000203166002900480156106615780601f1061063657610100808354040283529160200191610661565b820191906000526020600020905b81548152906001019060200180831161064457829003601f168201915b505050505081565b60015481565b600260009054906101000a900473ffffffffffffffffffffffffffffffffffffffff1681565b60065481565b600060076000836000191660001916815260200190815260200160002060009054906101000a900460ff169050919050565b60045481565b600080151560076000846000191660001916815260200190815260200160002060009054906101000a900460ff16151514151561070f57600080fd5b600060055411151561072057600080fd5b600260009054906101000a900473ffffffffffffffffffffffffffffffffffffffff1673ffffffffffffffffffffffffffffffffffffffff16635dec8ae9336006546040518363ffffffff167c0100000000000000000000000000000000000000000000000000000000028152600401808373ffffffffffffffffffffffffffffffffffffffff1673ffffffffffffffffffffffffffffffffffffffff16815260200182815260200192505050602060405180830381600087803b1580156107e757600080fd5b505af11580156107fb573d6000803e3d6000fd5b505050506040513d602081101561081157600080fd5b810190808051906020019092919050505050600560008154809291906001900391905055506000600554141561086e577ff04cbd4ac0765eee53b54a9c979903c1f995fc834d1ec4461774b93faa51665460405160405180910390a15b600160076000846000191660001916815260200190815260200160002060006101000a81548160ff0219169083151502179055507fdd4735862e2d97db7309e1a3511813dbe4b9358159883baee880cd68b0b32d058260405180826000191660001916815260200191505060405180910390a18190509190505600a165627a7a7230582052c3afc108881a18f3084fc202d385ad62dc65d45382bdc5db5458775a82ea170029",
  "source": "pragma solidity ^0.4.18;\n\nimport \"./ContestManager.sol\";\n\ncontract Contest {\n    uint public registerFinalDate;\n    uint public contestDate;\n    ContestManager public cm;\n    string public description;\n    uint public totalTickets;\n    uint public availableTickets;\n    uint public tokensPerTicket;\n    mapping(bytes32 => bool) public claimedTickets;\n\n    constructor( uint _registerFinalDate, uint _contestDate,string _description, uint _totalTickets, address _contestManagerAddr, uint _tokensPerTicket) public {\n        registerFinalDate=_registerFinalDate;\n        description=_description;\n        contestDate=_contestDate;\n        totalTickets=_totalTickets;\n        tokensPerTicket=_tokensPerTicket;\n        cm= ContestManager(_contestManagerAddr);\n\n    }\n    // not working!\n    function claimTicket(bytes32 code) public returns(bytes32) {\n        require(claimedTickets[code] == false);\n        require(availableTickets > 0);\n        cm.spendTokens(msg.sender,tokensPerTicket);\n        availableTickets--;\n        if(availableTickets == 0){\n            emit NoMoreTickets();\n        }\n        claimedTickets[code] = true;\n        emit TicketClaimed(code);\n        return code;\n    }\n\n    function checkTicket(bytes32 code) public view returns (bool) {\n        return claimedTickets[code];\n    }\n\n    function freeTicket(bytes32 code) public returns (bytes32) {\n        require(claimedTickets[code] == true);\n        cm.recoverTokens(msg.sender,tokensPerTicket);\n        claimedTickets[code] = false;\n        emit TicketFreed(code);\n        availableTickets++;\n        claimedTickets[code] = false;\n        return code;\n    }\n    event TicketClaimed(bytes32 code);\n    event TicketFreed(bytes32 code);\n    event NoMoreTickets();\n}\n\n",
  "sourcePath": "/home/fernandocerezal/repos/ContestManager/contracts/Contest.sol",
  "compiler": {
    "name": "solc",
    "version": "0.4.23+commit.124ca40d.Emscripten.clang"
  },
  "schemaVersion": "2.0.0",
  "updatedAt": "2018-05-07T14:00:32.188Z"
}