{
  "contractName": "contestManager",
  "abi": [
    {
      "constant": true,
      "inputs": [],
      "name": "name",
      "outputs": [
        {
          "name": "",
          "type": "string"
        }
      ],
      "payable": false,
      "stateMutability": "view",
      "type": "function"
    },
    {
      "constant": true,
      "inputs": [],
      "name": "_totalSupply",
      "outputs": [
        {
          "name": "",
          "type": "uint256"
        }
      ],
      "payable": false,
      "stateMutability": "view",
      "type": "function"
    },
    {
      "constant": true,
      "inputs": [],
      "name": "symbol",
      "outputs": [
        {
          "name": "",
          "type": "string"
        }
      ],
      "payable": false,
      "stateMutability": "view",
      "type": "function"
    },
    {
      "constant": true,
      "inputs": [
        {
          "name": "",
          "type": "uint256"
        }
      ],
      "name": "contests",
      "outputs": [
        {
          "name": "",
          "type": "address"
        }
      ],
      "payable": false,
      "stateMutability": "view",
      "type": "function"
    },
    {
      "inputs": [],
      "payable": false,
      "stateMutability": "nonpayable",
      "type": "constructor"
    },
    {
      "anonymous": false,
      "inputs": [
        {
          "indexed": true,
          "name": "from",
          "type": "address"
        },
        {
          "indexed": true,
          "name": "to",
          "type": "address"
        },
        {
          "indexed": false,
          "name": "tokens",
          "type": "uint256"
        }
      ],
      "name": "Transfer",
      "type": "event"
    },
    {
      "anonymous": false,
      "inputs": [
        {
          "indexed": true,
          "name": "tokenOwner",
          "type": "address"
        },
        {
          "indexed": true,
          "name": "spender",
          "type": "address"
        },
        {
          "indexed": false,
          "name": "tokens",
          "type": "uint256"
        }
      ],
      "name": "Approval",
      "type": "event"
    },
    {
      "constant": false,
      "inputs": [
        {
          "name": "tokens",
          "type": "uint256"
        }
      ],
      "name": "addTokens",
      "outputs": [
        {
          "name": "success",
          "type": "bool"
        }
      ],
      "payable": false,
      "stateMutability": "nonpayable",
      "type": "function"
    },
    {
      "constant": false,
      "inputs": [
        {
          "name": "to",
          "type": "address"
        },
        {
          "name": "tokens",
          "type": "uint256"
        }
      ],
      "name": "transfer",
      "outputs": [
        {
          "name": "success",
          "type": "bool"
        }
      ],
      "payable": false,
      "stateMutability": "nonpayable",
      "type": "function"
    },
    {
      "constant": false,
      "inputs": [
        {
          "name": "spender",
          "type": "address"
        },
        {
          "name": "tokens",
          "type": "uint256"
        }
      ],
      "name": "approve",
      "outputs": [
        {
          "name": "success",
          "type": "bool"
        }
      ],
      "payable": false,
      "stateMutability": "nonpayable",
      "type": "function"
    },
    {
      "constant": false,
      "inputs": [
        {
          "name": "from",
          "type": "address"
        },
        {
          "name": "to",
          "type": "address"
        },
        {
          "name": "tokens",
          "type": "uint256"
        }
      ],
      "name": "transferFrom",
      "outputs": [
        {
          "name": "success",
          "type": "bool"
        }
      ],
      "payable": false,
      "stateMutability": "nonpayable",
      "type": "function"
    },
    {
      "constant": false,
      "inputs": [
        {
          "name": "registerFinalDate",
          "type": "uint256"
        },
        {
          "name": "contestDate",
          "type": "uint256"
        },
        {
          "name": "description",
          "type": "string"
        },
        {
          "name": "totalTickets",
          "type": "uint256"
        }
      ],
      "name": "newContest",
      "outputs": [
        {
          "name": "contest",
          "type": "address"
        }
      ],
      "payable": false,
      "stateMutability": "nonpayable",
      "type": "function"
    },
    {
      "constant": true,
      "inputs": [],
      "name": "totalSupply",
      "outputs": [
        {
          "name": "",
          "type": "uint256"
        }
      ],
      "payable": false,
      "stateMutability": "view",
      "type": "function"
    },
    {
      "constant": true,
      "inputs": [
        {
          "name": "tokenOwner",
          "type": "address"
        }
      ],
      "name": "balanceOf",
      "outputs": [
        {
          "name": "balance",
          "type": "uint256"
        }
      ],
      "payable": false,
      "stateMutability": "view",
      "type": "function"
    },
    {
      "constant": true,
      "inputs": [
        {
          "name": "tokenOwner",
          "type": "address"
        },
        {
          "name": "spender",
          "type": "address"
        }
      ],
      "name": "allowance",
      "outputs": [
        {
          "name": "remaining",
          "type": "uint256"
        }
      ],
      "payable": false,
      "stateMutability": "view",
      "type": "function"
    }
  ],
  "bytecode": "0x60806040523480156200001157600080fd5b50336000806101000a81548173ffffffffffffffffffffffffffffffffffffffff021916908373ffffffffffffffffffffffffffffffffffffffff1602179055506040805190810160405280600b81526020017f5469636b6574546f6b656e000000000000000000000000000000000000000000815250600190805190602001906200009f929190620001ec565b506040805190810160405280600281526020017f545400000000000000000000000000000000000000000000000000000000000081525060029080519060200190620000ed929190620001ec565b506064600681905550600654600460008060009054906101000a900473ffffffffffffffffffffffffffffffffffffffff1673ffffffffffffffffffffffffffffffffffffffff1673ffffffffffffffffffffffffffffffffffffffff168152602001908152602001600020819055506000809054906101000a900473ffffffffffffffffffffffffffffffffffffffff1673ffffffffffffffffffffffffffffffffffffffff16600073ffffffffffffffffffffffffffffffffffffffff167fddf252ad1be2c89b69c2b068fc378daa952ba7f163c4a11628f55a4df523b3ef6006546040518082815260200191505060405180910390a36200029b565b828054600181600116156101000203166002900490600052602060002090601f016020900481019282601f106200022f57805160ff191683800117855562000260565b8280016001018555821562000260579182015b828111156200025f57825182559160200191906001019062000242565b5b5090506200026f919062000273565b5090565b6200029891905b80821115620002945760008160009055506001016200027a565b5090565b90565b61167580620002ab6000396000f3006080604052600436106100ba576000357c0100000000000000000000000000000000000000000000000000000000900463ffffffff16806306fdde03146100bf578063095ea7b31461014f57806318160ddd146101b457806323b872dd146101df5780633eaaf86b1461026457806370a082311461028f5780638e1f1e02146102e657806395d89b41146103ad5780639d7ed7381461043d578063a9059cbb146104aa578063c6ed89901461050f578063dd62ed3e14610554575b600080fd5b3480156100cb57600080fd5b506100d46105cb565b6040518080602001828103825283818151815260200191508051906020019080838360005b838110156101145780820151818401526020810190506100f9565b50505050905090810190601f1680156101415780820380516001836020036101000a031916815260200191505b509250505060405180910390f35b34801561015b57600080fd5b5061019a600480360381019080803573ffffffffffffffffffffffffffffffffffffffff16906020019092919080359060200190929190505050610669565b604051808215151515815260200191505060405180910390f35b3480156101c057600080fd5b506101c961075b565b6040518082815260200191505060405180910390f35b3480156101eb57600080fd5b5061024a600480360381019080803573ffffffffffffffffffffffffffffffffffffffff169060200190929190803573ffffffffffffffffffffffffffffffffffffffff169060200190929190803590602001909291905050506107a6565b604051808215151515815260200191505060405180910390f35b34801561027057600080fd5b50610279610a51565b6040518082815260200191505060405180910390f35b34801561029b57600080fd5b506102d0600480360381019080803573ffffffffffffffffffffffffffffffffffffffff169060200190929190505050610a57565b6040518082815260200191505060405180910390f35b3480156102f257600080fd5b5061036b6004803603810190808035906020019092919080359060200190929190803590602001908201803590602001908080601f016020809104026020016040519081016040528093929190818152602001838380828437820191505050505050919291929080359060200190929190505050610aa0565b604051808273ffffffffffffffffffffffffffffffffffffffff1673ffffffffffffffffffffffffffffffffffffffff16815260200191505060405180910390f35b3480156103b957600080fd5b506103c2610c2d565b6040518080602001828103825283818151815260200191508051906020019080838360005b838110156104025780820151818401526020810190506103e7565b50505050905090810190601f16801561042f5780820380516001836020036101000a031916815260200191505b509250505060405180910390f35b34801561044957600080fd5b5061046860048036038101908080359060200190929190505050610ccb565b604051808273ffffffffffffffffffffffffffffffffffffffff1673ffffffffffffffffffffffffffffffffffffffff16815260200191505060405180910390f35b3480156104b657600080fd5b506104f5600480360381019080803573ffffffffffffffffffffffffffffffffffffffff16906020019092919080359060200190929190505050610d09565b604051808215151515815260200191505060405180910390f35b34801561051b57600080fd5b5061053a60048036038101908080359060200190929190505050610ea4565b604051808215151515815260200191505060405180910390f35b34801561056057600080fd5b506105b5600480360381019080803573ffffffffffffffffffffffffffffffffffffffff169060200190929190803573ffffffffffffffffffffffffffffffffffffffff16906020019092919050505061101b565b6040518082815260200191505060405180910390f35b60018054600181600116156101000203166002900480601f0160208091040260200160405190810160405280929190818152602001828054600181600116156101000203166002900480156106615780601f1061063657610100808354040283529160200191610661565b820191906000526020600020905b81548152906001019060200180831161064457829003601f168201915b505050505081565b600081600560003373ffffffffffffffffffffffffffffffffffffffff1673ffffffffffffffffffffffffffffffffffffffff16815260200190815260200160002060008573ffffffffffffffffffffffffffffffffffffffff1673ffffffffffffffffffffffffffffffffffffffff168152602001908152602001600020819055508273ffffffffffffffffffffffffffffffffffffffff163373ffffffffffffffffffffffffffffffffffffffff167f8c5be1e5ebec7d5bd14f71427d1e84f3dd0314c0f7b2291e5b200ac8c7c3b925846040518082815260200191505060405180910390a36001905092915050565b6000600460008073ffffffffffffffffffffffffffffffffffffffff1673ffffffffffffffffffffffffffffffffffffffff1681526020019081526020016000205460065403905090565b60006107fa82600460008773ffffffffffffffffffffffffffffffffffffffff1673ffffffffffffffffffffffffffffffffffffffff168152602001908152602001600020546110a290919063ffffffff16565b600460008673ffffffffffffffffffffffffffffffffffffffff1673ffffffffffffffffffffffffffffffffffffffff168152602001908152602001600020819055506108cc82600560008773ffffffffffffffffffffffffffffffffffffffff1673ffffffffffffffffffffffffffffffffffffffff16815260200190815260200160002060003373ffffffffffffffffffffffffffffffffffffffff1673ffffffffffffffffffffffffffffffffffffffff168152602001908152602001600020546110a290919063ffffffff16565b600560008673ffffffffffffffffffffffffffffffffffffffff1673ffffffffffffffffffffffffffffffffffffffff16815260200190815260200160002060003373ffffffffffffffffffffffffffffffffffffffff1673ffffffffffffffffffffffffffffffffffffffff1681526020019081526020016000208190555061099e82600460008673ffffffffffffffffffffffffffffffffffffffff1673ffffffffffffffffffffffffffffffffffffffff168152602001908152602001600020546110be90919063ffffffff16565b600460008573ffffffffffffffffffffffffffffffffffffffff1673ffffffffffffffffffffffffffffffffffffffff168152602001908152602001600020819055508273ffffffffffffffffffffffffffffffffffffffff168473ffffffffffffffffffffffffffffffffffffffff167fddf252ad1be2c89b69c2b068fc378daa952ba7f163c4a11628f55a4df523b3ef846040518082815260200191505060405180910390a3600190509392505050565b60065481565b6000600460008373ffffffffffffffffffffffffffffffffffffffff1673ffffffffffffffffffffffffffffffffffffffff168152602001908152602001600020549050919050565b6000806000809054906101000a900473ffffffffffffffffffffffffffffffffffffffff1673ffffffffffffffffffffffffffffffffffffffff163373ffffffffffffffffffffffffffffffffffffffff16141515610afe57600080fd5b8486101515610b0c57600080fd5b85858585610b186110da565b8085815260200184815260200180602001838152602001828103825284818151815260200191508051906020019080838360005b83811015610b67578082015181840152602081019050610b4c565b50505050905090810190601f168015610b945780820380516001836020036101000a031916815260200191505b5095505050505050604051809103906000f080158015610bb8573d6000803e3d6000fd5b50905060038190806001815401808255809150509060018203906000526020600020016000909192909190916101000a81548173ffffffffffffffffffffffffffffffffffffffff021916908373ffffffffffffffffffffffffffffffffffffffff1602179055505080915050949350505050565b60028054600181600116156101000203166002900480601f016020809104026020016040519081016040528092919081815260200182805460018160011615610100020316600290048015610cc35780601f10610c9857610100808354040283529160200191610cc3565b820191906000526020600020905b815481529060010190602001808311610ca657829003601f168201915b505050505081565b600381815481101515610cda57fe5b906000526020600020016000915054906101000a900473ffffffffffffffffffffffffffffffffffffffff1681565b6000610d5d82600460003373ffffffffffffffffffffffffffffffffffffffff1673ffffffffffffffffffffffffffffffffffffffff168152602001908152602001600020546110a290919063ffffffff16565b600460003373ffffffffffffffffffffffffffffffffffffffff1673ffffffffffffffffffffffffffffffffffffffff16815260200190815260200160002081905550610df282600460008673ffffffffffffffffffffffffffffffffffffffff1673ffffffffffffffffffffffffffffffffffffffff168152602001908152602001600020546110be90919063ffffffff16565b600460008573ffffffffffffffffffffffffffffffffffffffff1673ffffffffffffffffffffffffffffffffffffffff168152602001908152602001600020819055508273ffffffffffffffffffffffffffffffffffffffff163373ffffffffffffffffffffffffffffffffffffffff167fddf252ad1be2c89b69c2b068fc378daa952ba7f163c4a11628f55a4df523b3ef846040518082815260200191505060405180910390a36001905092915050565b60008060009054906101000a900473ffffffffffffffffffffffffffffffffffffffff1673ffffffffffffffffffffffffffffffffffffffff163373ffffffffffffffffffffffffffffffffffffffff16141515610f0157600080fd5b610f16826006546110be90919063ffffffff16565b50610f8a82600460008060009054906101000a900473ffffffffffffffffffffffffffffffffffffffff1673ffffffffffffffffffffffffffffffffffffffff1673ffffffffffffffffffffffffffffffffffffffff168152602001908152602001600020546110be90919063ffffffff16565b506000809054906101000a900473ffffffffffffffffffffffffffffffffffffffff1673ffffffffffffffffffffffffffffffffffffffff16600073ffffffffffffffffffffffffffffffffffffffff167fddf252ad1be2c89b69c2b068fc378daa952ba7f163c4a11628f55a4df523b3ef846040518082815260200191505060405180910390a360019050919050565b6000600560008473ffffffffffffffffffffffffffffffffffffffff1673ffffffffffffffffffffffffffffffffffffffff16815260200190815260200160002060008373ffffffffffffffffffffffffffffffffffffffff1673ffffffffffffffffffffffffffffffffffffffff16815260200190815260200160002054905092915050565b60008282111515156110b357600080fd5b818303905092915050565b600081830190508281101515156110d457600080fd5b92915050565b60405161055f806110eb833901905600608060405234801561001057600080fd5b5060405161055f38038061055f83398101806040528101908080519060200190929190805190602001909291908051820192919060200180519060200190929190505050836000819055508160029080519060200190610071929190610089565b5082600181905550806003819055505050505061012e565b828054600181600116156101000203166002900490600052602060002090601f016020900481019282601f106100ca57805160ff19168380011785556100f8565b828001600101855582156100f8579182015b828111156100f75782518255916020019190600101906100dc565b5b5090506101059190610109565b5090565b61012b91905b8082111561012757600081600090555060010161010f565b5090565b90565b6104228061013d6000396000f300608060405260043610610062576000357c0100000000000000000000000000000000000000000000000000000000900463ffffffff16806360f67b5714610067578063636f3483146100b0578063ba91f717146100fd578063ed9d4ce714610146575b600080fd5b34801561007357600080fd5b506100966004803603810190808035600019169060200190929190505050610193565b604051808215151515815260200191505060405180910390f35b3480156100bc57600080fd5b506100df60048036038101908080356000191690602001909291905050506101b3565b60405180826000191660001916815260200191505060405180910390f35b34801561010957600080fd5b5061012c60048036038101908080356000191690602001909291905050506102b1565b604051808215151515815260200191505060405180910390f35b34801561015257600080fd5b5061017560048036038101908080356000191690602001909291905050506102e3565b60405180826000191660001916815260200191505060405180910390f35b60056020528060005260406000206000915054906101000a900460ff1681565b60006001151560056000846000191660001916815260200190815260200160002060009054906101000a900460ff1615151415156101f057600080fd5b600060056000846000191660001916815260200190815260200160002060006101000a81548160ff0219169083151502179055507fa1c591661dcc83e808acb2048e0c355d3b074f83d75eb0468d50d1bebee9b6288260405180826000191660001916815260200191505060405180910390a1600460008154809291906001019190505550600060056000846000191660001916815260200190815260200160002060006101000a81548160ff021916908315150217905550819050919050565b600060056000836000191660001916815260200190815260200160002060009054906101000a900460ff169050919050565b600080151560056000846000191660001916815260200190815260200160002060009054906101000a900460ff16151514151561031f57600080fd5b600060045411151561033057600080fd5b600460008154809291906001900391905055506000600454141561037b577ff04cbd4ac0765eee53b54a9c979903c1f995fc834d1ec4461774b93faa51665460405160405180910390a15b600160056000846000191660001916815260200190815260200160002060006101000a81548160ff0219169083151502179055507fdd4735862e2d97db7309e1a3511813dbe4b9358159883baee880cd68b0b32d058260405180826000191660001916815260200191505060405180910390a18190509190505600a165627a7a72305820e4af182fa9591685e5a4365ef3a5ddeb4498133bf703657b651a0d6de8e9b1520029a165627a7a72305820cbbd3051e452496c32907f0efc8503013cdee3dc8eba96ddb9a99a8e589b87870029",
  "source": "pragma solidity ^0.4.23;\n\nlibrary SafeMath {\n    function add(uint a, uint b) internal pure returns (uint c) {\n        c = a + b;\n        require(c >= a);\n    }\n    function sub(uint a, uint b) internal pure returns (uint c) {\n        require(b <= a);\n        c = a - b;\n    }\n    function mul(uint a, uint b) internal pure returns (uint c) {\n        c = a * b;\n        require(a == 0 || c / a == b);\n    }\n    function div(uint a, uint b) internal pure returns (uint c) {\n        require(b > 0);\n        c = a / b;\n    }\n}\n\ncontract ERC20Interface {\n    function totalSupply() public constant returns (uint);                                   \n    function balanceOf(address tokenOwner) public constant returns (uint balance);           \n    function allowance(address tokenOwner, address spender) public constant returns (uint remaining); \n    function transfer(address to, uint tokens) public returns (bool success); \n    function approve(address spender, uint tokens) public returns (bool success); \n    function transferFrom(address from, address to, uint tokens) public returns (bool success); \n    event Transfer(address indexed from, address indexed to, uint tokens);\n    event Approval(address indexed tokenOwner, address indexed spender, uint tokens);\n}\n\ncontract contestManager is ERC20Interface {\n    address admin;\n    string public name;\n    string public symbol;\n    address[] public contests;\n    mapping(address => uint) balances;\n    mapping(address => mapping(address => uint)) allowed;\n    uint public _totalSupply;\n\n    using SafeMath for uint;\n\n    modifier onlyAdmin() { \n        require(msg.sender == admin); \n        _; \n    }\n   \n    constructor() public {\n        admin = msg.sender;\n        name = \"TicketToken\";\n        symbol = \"TT\";\n        _totalSupply = 100;\n        balances[admin] = _totalSupply;\n        emit Transfer(address(0), admin, _totalSupply);\n    }\n    function addTokens(uint tokens) onlyAdmin public returns (bool success) {\n        _totalSupply.add(tokens);\n        balances[admin].add(tokens);\n        emit Transfer(address(0), admin, tokens);\n        return true;\n    }\n    function transfer(address to, uint tokens) public returns (bool success) {\n        balances[msg.sender] = balances[msg.sender].sub(tokens);\n        balances[to] = balances[to].add(tokens);\n        emit Transfer(msg.sender, to, tokens);\n        return true;\n    }\n    function approve(address spender, uint tokens) public returns (bool success) {\n        allowed[msg.sender][spender] = tokens;\n        emit Approval(msg.sender, spender, tokens);\n        return true;\n    }\n    function transferFrom(address from, address to, uint tokens) public returns (bool success) {\n        balances[from] = balances[from].sub(tokens);\n        allowed[from][msg.sender] = allowed[from][msg.sender].sub(tokens);\n        balances[to] = balances[to].add(tokens);\n        emit Transfer(from, to, tokens);\n        return true;\n    }\n    function newContest(uint registerFinalDate, uint contestDate, string description, uint totalTickets) onlyAdmin public returns (address contest) {\n        require(registerFinalDate < contestDate);\n        address c = new Contest(registerFinalDate, contestDate, description, totalTickets);\n        contests.push(c);\n        return c;\n    }\n    function totalSupply() public constant returns (uint){\n        return _totalSupply  - balances[address(0)]; //address(0) is owner\n    } \n    function balanceOf(address tokenOwner) public constant returns (uint balance){\n        return balances[tokenOwner];\n    }\n    function allowance(address tokenOwner, address spender) public constant returns (uint remaining){\n        return allowed[tokenOwner][spender];\n    }\n}\n\ncontract Contest {\n    uint registerFinalDate;\n    uint contestDate;\n    string description;\n    uint totalTickets;\n    uint availableTickets;\n    mapping(bytes32 => bool) public claimedTickets;\n\n    constructor( uint _registerFinalDate, uint _contestDate,string _description, uint _totalTickets) public {\n        registerFinalDate=_registerFinalDate;\n        description=_description;\n        contestDate=_contestDate;\n        totalTickets=_totalTickets;\n\n    } \n    function claimTicket(bytes32 code) public returns(bytes32) {\n        require(claimedTickets[code] == false);\n        require(availableTickets > 0);\n        availableTickets--;\n        if(availableTickets == 0){\n            emit NoMoreTickets();\n        }\n        claimedTickets[code] = true;\n        emit TicketClaimed(code);\n        return code;\n    }\n    function checkTicket(bytes32 code) public view returns (bool) {\n        return claimedTickets[code];\n    }\n    function freeTicket(bytes32 code) public returns (bytes32) {\n        require(claimedTickets[code] == true);\n        claimedTickets[code] = false;\n        emit TicketFreed(code);\n        availableTickets++;\n        claimedTickets[code] = false;\n        return code;\n    }\n    event TicketClaimed(bytes32 code);\n    event TicketFreed(bytes32 code);\n    event NoMoreTickets();\n}\n\n",
  "sourcePath": "/home/mariorodriguez/Beeva/poc-truffle/ContestTicket/contracts/ContestManager.sol",
  "compiler": {
    "name": "solc",
    "version": "0.4.23+commit.124ca40d.Emscripten.clang"
  },
  "schemaVersion": "2.0.0",
  "updatedAt": "2018-05-04T11:54:01.202Z"
}